{
  "_format": "hh-sol-artifact-1",
  "contractName": "AITU",
  "sourceName": "contracts/AITU.sol",
  "abi": [
    {
      "inputs": [],
      "stateMutability": "nonpayable",
      "type": "constructor"
    },
    {
      "inputs": [],
      "name": "ApprovalCallerNotOwnerNorApproved",
      "type": "error"
    },
    {
      "inputs": [],
      "name": "ApprovalQueryForNonexistentToken",
      "type": "error"
    },
    {
      "inputs": [],
      "name": "BalanceQueryForZeroAddress",
      "type": "error"
    },
    {
      "inputs": [],
      "name": "MintERC2309QuantityExceedsLimit",
      "type": "error"
    },
    {
      "inputs": [],
      "name": "MintToZeroAddress",
      "type": "error"
    },
    {
      "inputs": [],
      "name": "MintZeroQuantity",
      "type": "error"
    },
    {
      "inputs": [],
      "name": "OwnerQueryForNonexistentToken",
      "type": "error"
    },
    {
      "inputs": [],
      "name": "OwnershipNotInitializedForExtraData",
      "type": "error"
    },
    {
      "inputs": [],
      "name": "TransferCallerNotOwnerNorApproved",
      "type": "error"
    },
    {
      "inputs": [],
      "name": "TransferFromIncorrectOwner",
      "type": "error"
    },
    {
      "inputs": [],
      "name": "TransferToNonERC721ReceiverImplementer",
      "type": "error"
    },
    {
      "inputs": [],
      "name": "TransferToZeroAddress",
      "type": "error"
    },
    {
      "inputs": [],
      "name": "URIQueryForNonexistentToken",
      "type": "error"
    },
    {
      "anonymous": false,
      "inputs": [
        {
          "indexed": true,
          "internalType": "address",
          "name": "recipient",
          "type": "address"
        },
        {
          "indexed": false,
          "internalType": "uint256",
          "name": "quantity",
          "type": "uint256"
        }
      ],
      "name": "Airdropped",
      "type": "event"
    },
    {
      "anonymous": false,
      "inputs": [
        {
          "indexed": true,
          "internalType": "address",
          "name": "owner",
          "type": "address"
        },
        {
          "indexed": true,
          "internalType": "address",
          "name": "approved",
          "type": "address"
        },
        {
          "indexed": true,
          "internalType": "uint256",
          "name": "tokenId",
          "type": "uint256"
        }
      ],
      "name": "Approval",
      "type": "event"
    },
    {
      "anonymous": false,
      "inputs": [
        {
          "indexed": true,
          "internalType": "address",
          "name": "owner",
          "type": "address"
        },
        {
          "indexed": true,
          "internalType": "address",
          "name": "operator",
          "type": "address"
        },
        {
          "indexed": false,
          "internalType": "bool",
          "name": "approved",
          "type": "bool"
        }
      ],
      "name": "ApprovalForAll",
      "type": "event"
    },
    {
      "anonymous": false,
      "inputs": [
        {
          "indexed": true,
          "internalType": "uint256",
          "name": "fromTokenId",
          "type": "uint256"
        },
        {
          "indexed": false,
          "internalType": "uint256",
          "name": "toTokenId",
          "type": "uint256"
        },
        {
          "indexed": true,
          "internalType": "address",
          "name": "from",
          "type": "address"
        },
        {
          "indexed": true,
          "internalType": "address",
          "name": "to",
          "type": "address"
        }
      ],
      "name": "ConsecutiveTransfer",
      "type": "event"
    },
    {
      "anonymous": false,
      "inputs": [
        {
          "indexed": false,
          "internalType": "uint256",
          "name": "newRate",
          "type": "uint256"
        }
      ],
      "name": "MintRateUpdated",
      "type": "event"
    },
    {
      "anonymous": false,
      "inputs": [
        {
          "indexed": true,
          "internalType": "address",
          "name": "previousOwner",
          "type": "address"
        },
        {
          "indexed": true,
          "internalType": "address",
          "name": "newOwner",
          "type": "address"
        }
      ],
      "name": "OwnershipTransferred",
      "type": "event"
    },
    {
      "anonymous": false,
      "inputs": [
        {
          "indexed": false,
          "internalType": "bool",
          "name": "newStatus",
          "type": "bool"
        }
      ],
      "name": "PublicMintStatusChanged",
      "type": "event"
    },
    {
      "anonymous": false,
      "inputs": [
        {
          "indexed": true,
          "internalType": "address",
          "name": "minter",
          "type": "address"
        },
        {
          "indexed": false,
          "internalType": "uint256",
          "name": "quantity",
          "type": "uint256"
        }
      ],
      "name": "TokensMinted",
      "type": "event"
    },
    {
      "anonymous": false,
      "inputs": [
        {
          "indexed": true,
          "internalType": "address",
          "name": "from",
          "type": "address"
        },
        {
          "indexed": true,
          "internalType": "address",
          "name": "to",
          "type": "address"
        },
        {
          "indexed": true,
          "internalType": "uint256",
          "name": "tokenId",
          "type": "uint256"
        }
      ],
      "name": "Transfer",
      "type": "event"
    },
    {
      "anonymous": false,
      "inputs": [
        {
          "indexed": true,
          "internalType": "address",
          "name": "recipient",
          "type": "address"
        },
        {
          "indexed": false,
          "internalType": "uint256",
          "name": "amount",
          "type": "uint256"
        }
      ],
      "name": "Withdrawal",
      "type": "event"
    },
    {
      "inputs": [
        {
          "internalType": "address",
          "name": "user",
          "type": "address"
        }
      ],
      "name": "addToWhitelist",
      "outputs": [],
      "stateMutability": "nonpayable",
      "type": "function"
    },
    {
      "inputs": [
        {
          "internalType": "address",
          "name": "recipient",
          "type": "address"
        },
        {
          "internalType": "uint256",
          "name": "quantity",
          "type": "uint256"
        }
      ],
      "name": "airdrop",
      "outputs": [],
      "stateMutability": "nonpayable",
      "type": "function"
    },
    {
      "inputs": [
        {
          "internalType": "address",
          "name": "to",
          "type": "address"
        },
        {
          "internalType": "uint256",
          "name": "tokenId",
          "type": "uint256"
        }
      ],
      "name": "approve",
      "outputs": [],
      "stateMutability": "payable",
      "type": "function"
    },
    {
      "inputs": [
        {
          "internalType": "address",
          "name": "owner",
          "type": "address"
        }
      ],
      "name": "balanceOf",
      "outputs": [
        {
          "internalType": "uint256",
          "name": "",
          "type": "uint256"
        }
      ],
      "stateMutability": "view",
      "type": "function"
    },
    {
      "inputs": [],
      "name": "baseExtenstion",
      "outputs": [
        {
          "internalType": "string",
          "name": "",
          "type": "string"
        }
      ],
      "stateMutability": "view",
      "type": "function"
    },
    {
      "inputs": [
        {
          "internalType": "bool",
          "name": "_publicMintOpen",
          "type": "bool"
        }
      ],
      "name": "editMint",
      "outputs": [],
      "stateMutability": "nonpayable",
      "type": "function"
    },
    {
      "inputs": [
        {
          "internalType": "uint256",
          "name": "tokenId",
          "type": "uint256"
        }
      ],
      "name": "getApproved",
      "outputs": [
        {
          "internalType": "address",
          "name": "",
          "type": "address"
        }
      ],
      "stateMutability": "view",
      "type": "function"
    },
    {
      "inputs": [],
      "name": "getTotalTokensMinted",
      "outputs": [
        {
          "internalType": "uint256",
          "name": "",
          "type": "uint256"
        }
      ],
      "stateMutability": "view",
      "type": "function"
    },
    {
      "inputs": [
        {
          "internalType": "address",
          "name": "owner",
          "type": "address"
        },
        {
          "internalType": "address",
          "name": "operator",
          "type": "address"
        }
      ],
      "name": "isApprovedForAll",
      "outputs": [
        {
          "internalType": "bool",
          "name": "",
          "type": "bool"
        }
      ],
      "stateMutability": "view",
      "type": "function"
    },
    {
      "inputs": [
        {
          "internalType": "uint256",
          "name": "quantity",
          "type": "uint256"
        }
      ],
      "name": "mint",
      "outputs": [],
      "stateMutability": "payable",
      "type": "function"
    },
    {
      "inputs": [
        {
          "internalType": "uint256",
          "name": "quantity",
          "type": "uint256"
        }
      ],
      "name": "mintOwner",
      "outputs": [],
      "stateMutability": "nonpayable",
      "type": "function"
    },
    {
      "inputs": [],
      "name": "mintRate",
      "outputs": [
        {
          "internalType": "uint256",
          "name": "",
          "type": "uint256"
        }
      ],
      "stateMutability": "view",
      "type": "function"
    },
    {
      "inputs": [],
      "name": "name",
      "outputs": [
        {
          "internalType": "string",
          "name": "",
          "type": "string"
        }
      ],
      "stateMutability": "view",
      "type": "function"
    },
    {
      "inputs": [],
      "name": "owner",
      "outputs": [
        {
          "internalType": "address",
          "name": "",
          "type": "address"
        }
      ],
      "stateMutability": "view",
      "type": "function"
    },
    {
      "inputs": [
        {
          "internalType": "uint256",
          "name": "tokenId",
          "type": "uint256"
        }
      ],
      "name": "ownerOf",
      "outputs": [
        {
          "internalType": "address",
          "name": "",
          "type": "address"
        }
      ],
      "stateMutability": "view",
      "type": "function"
    },
    {
      "inputs": [],
      "name": "publicMintOpen",
      "outputs": [
        {
          "internalType": "bool",
          "name": "",
          "type": "bool"
        }
      ],
      "stateMutability": "view",
      "type": "function"
    },
    {
      "inputs": [
        {
          "internalType": "address",
          "name": "user",
          "type": "address"
        }
      ],
      "name": "removeFromWhitelist",
      "outputs": [],
      "stateMutability": "nonpayable",
      "type": "function"
    },
    {
      "inputs": [],
      "name": "renounceOwnership",
      "outputs": [],
      "stateMutability": "nonpayable",
      "type": "function"
    },
    {
      "inputs": [
        {
          "internalType": "address",
          "name": "from",
          "type": "address"
        },
        {
          "internalType": "address",
          "name": "to",
          "type": "address"
        },
        {
          "internalType": "uint256",
          "name": "tokenId",
          "type": "uint256"
        }
      ],
      "name": "safeTransferFrom",
      "outputs": [],
      "stateMutability": "payable",
      "type": "function"
    },
    {
      "inputs": [
        {
          "internalType": "address",
          "name": "from",
          "type": "address"
        },
        {
          "internalType": "address",
          "name": "to",
          "type": "address"
        },
        {
          "internalType": "uint256",
          "name": "tokenId",
          "type": "uint256"
        },
        {
          "internalType": "bytes",
          "name": "_data",
          "type": "bytes"
        }
      ],
      "name": "safeTransferFrom",
      "outputs": [],
      "stateMutability": "payable",
      "type": "function"
    },
    {
      "inputs": [
        {
          "internalType": "address",
          "name": "operator",
          "type": "address"
        },
        {
          "internalType": "bool",
          "name": "approved",
          "type": "bool"
        }
      ],
      "name": "setApprovalForAll",
      "outputs": [],
      "stateMutability": "nonpayable",
      "type": "function"
    },
    {
      "inputs": [
        {
          "internalType": "string",
          "name": "baseTokenUri_",
          "type": "string"
        }
      ],
      "name": "setBaseTokenUri",
      "outputs": [],
      "stateMutability": "nonpayable",
      "type": "function"
    },
    {
      "inputs": [
        {
          "internalType": "uint256",
          "name": "_mintRate",
          "type": "uint256"
        }
      ],
      "name": "setMintRate",
      "outputs": [],
      "stateMutability": "nonpayable",
      "type": "function"
    },
    {
      "inputs": [
        {
          "internalType": "bytes4",
          "name": "interfaceId",
          "type": "bytes4"
        }
      ],
      "name": "supportsInterface",
      "outputs": [
        {
          "internalType": "bool",
          "name": "",
          "type": "bool"
        }
      ],
      "stateMutability": "view",
      "type": "function"
    },
    {
      "inputs": [],
      "name": "symbol",
      "outputs": [
        {
          "internalType": "string",
          "name": "",
          "type": "string"
        }
      ],
      "stateMutability": "view",
      "type": "function"
    },
    {
      "inputs": [
        {
          "internalType": "uint256",
          "name": "",
          "type": "uint256"
        }
      ],
      "name": "tokenData",
      "outputs": [
        {
          "internalType": "uint256",
          "name": "tokenId",
          "type": "uint256"
        },
        {
          "internalType": "uint256",
          "name": "timestamp",
          "type": "uint256"
        },
        {
          "internalType": "address",
          "name": "owner",
          "type": "address"
        }
      ],
      "stateMutability": "view",
      "type": "function"
    },
    {
      "inputs": [
        {
          "internalType": "uint256",
          "name": "tokenId_",
          "type": "uint256"
        }
      ],
      "name": "tokenURI",
      "outputs": [
        {
          "internalType": "string",
          "name": "",
          "type": "string"
        }
      ],
      "stateMutability": "view",
      "type": "function"
    },
    {
      "inputs": [],
      "name": "totalSupply",
      "outputs": [
        {
          "internalType": "uint256",
          "name": "",
          "type": "uint256"
        }
      ],
      "stateMutability": "view",
      "type": "function"
    },
    {
      "inputs": [],
      "name": "totalTokensMinted",
      "outputs": [
        {
          "internalType": "uint256",
          "name": "",
          "type": "uint256"
        }
      ],
      "stateMutability": "view",
      "type": "function"
    },
    {
      "inputs": [
        {
          "internalType": "address",
          "name": "from",
          "type": "address"
        },
        {
          "internalType": "address",
          "name": "to",
          "type": "address"
        },
        {
          "internalType": "uint256",
          "name": "tokenId",
          "type": "uint256"
        }
      ],
      "name": "transferFrom",
      "outputs": [],
      "stateMutability": "payable",
      "type": "function"
    },
    {
      "inputs": [
        {
          "internalType": "address",
          "name": "newOwner",
          "type": "address"
        }
      ],
      "name": "transferOwnership",
      "outputs": [],
      "stateMutability": "nonpayable",
      "type": "function"
    },
    {
      "inputs": [
        {
          "internalType": "address",
          "name": "",
          "type": "address"
        }
      ],
      "name": "whitelist",
      "outputs": [
        {
          "internalType": "bool",
          "name": "",
          "type": "bool"
        }
      ],
      "stateMutability": "view",
      "type": "function"
    },
    {
      "inputs": [
        {
          "internalType": "address",
          "name": "_addr",
          "type": "address"
        }
      ],
      "name": "withdraw",
      "outputs": [],
      "stateMutability": "nonpayable",
      "type": "function"
    },
    {
      "stateMutability": "payable",
      "type": "receive"
    }
  ],
  "bytecode": "0x60806040526014600a556101f4600b55600a600c556611c37937e08000600d556040518060400160405280600581526020017f2e6a736f6e000000000000000000000000000000000000000000000000000000815250600f9081620000659190620004ae565b506000601160006101000a81548160ff0219169083151502179055503480156200008e57600080fd5b506040518060400160405280600481526020017f41495455000000000000000000000000000000000000000000000000000000008152506040518060400160405280600481526020017f414954550000000000000000000000000000000000000000000000000000000081525081600290816200010c9190620004ae565b5080600390816200011e9190620004ae565b506200012f6200015d60201b60201c565b6000819055505050620001576200014b6200016660201b60201c565b6200016e60201b60201c565b62000595565b60006001905090565b600033905090565b6000600860009054906101000a900473ffffffffffffffffffffffffffffffffffffffff16905081600860006101000a81548173ffffffffffffffffffffffffffffffffffffffff021916908373ffffffffffffffffffffffffffffffffffffffff1602179055508173ffffffffffffffffffffffffffffffffffffffff168173ffffffffffffffffffffffffffffffffffffffff167f8be0079c531659141344cd1fd0a4f28419497f9722a3daafe3b4186f6b6457e060405160405180910390a35050565b600081519050919050565b7f4e487b7100000000000000000000000000000000000000000000000000000000600052604160045260246000fd5b7f4e487b7100000000000000000000000000000000000000000000000000000000600052602260045260246000fd5b60006002820490506001821680620002b657607f821691505b602082108103620002cc57620002cb6200026e565b5b50919050565b60008190508160005260206000209050919050565b60006020601f8301049050919050565b600082821b905092915050565b600060088302620003367fffffffffffffffffffffffffffffffffffffffffffffffffffffffffffffffff82620002f7565b620003428683620002f7565b95508019841693508086168417925050509392505050565b6000819050919050565b6000819050919050565b60006200038f6200038962000383846200035a565b62000364565b6200035a565b9050919050565b6000819050919050565b620003ab836200036e565b620003c3620003ba8262000396565b84845462000304565b825550505050565b600090565b620003da620003cb565b620003e7818484620003a0565b505050565b5b818110156200040f5762000403600082620003d0565b600181019050620003ed565b5050565b601f8211156200045e576200042881620002d2565b6200043384620002e7565b8101602085101562000443578190505b6200045b6200045285620002e7565b830182620003ec565b50505b505050565b600082821c905092915050565b6000620004836000198460080262000463565b1980831691505092915050565b60006200049e838362000470565b9150826002028217905092915050565b620004b98262000234565b67ffffffffffffffff811115620004d557620004d46200023f565b5b620004e182546200029d565b620004ee82828562000413565b600060209050601f83116001811462000526576000841562000511578287015190505b6200051d858262000490565b8655506200058d565b601f1984166200053686620002d2565b60005b82811015620005605784890151825560018201915060208501945060208101905062000539565b868310156200058057848901516200057c601f89168262000470565b8355505b6001600288020188555050505b505050505050565b61367980620005a56000396000f3fe6080604052600436106101f25760003560e01c80638da5cb5b1161010d578063b88d4fde116100a0578063d6e2575d1161006f578063d6e2575d146106c7578063dbe2193f146106f0578063e43252d714610719578063e985e9c514610742578063f2fde38b1461077f576101f9565b8063b88d4fde14610618578063bcc9ca5b14610634578063c87b56dd1461065f578063ca0dcf161461069c576101f9565b80639b19251a116100dc5780639b19251a14610557578063a0712d6814610594578063a22cb465146105b0578063b4b5b48f146105d9576101f9565b80638da5cb5b146104ad57806395652cfa146104d85780639585f5af1461050157806395d89b411461052c576101f9565b806351cff8d9116101855780637d549e99116101545780637d549e991461040557806385b9b611146104305780638ab1d6811461045b5780638ba4cc3c14610484576101f9565b806351cff8d91461034b5780636352211e1461037457806370a08231146103b1578063715018a6146103ee576101f9565b806318160ddd116101c157806318160ddd146102bf57806323b872dd146102ea57806333f88d221461030657806342842e0e1461032f576101f9565b806301ffc9a7146101fe57806306fdde031461023b578063081812fc14610266578063095ea7b3146102a3576101f9565b366101f957005b600080fd5b34801561020a57600080fd5b506102256004803603810190610220919061260a565b6107a8565b6040516102329190612652565b60405180910390f35b34801561024757600080fd5b5061025061083a565b60405161025d91906126fd565b60405180910390f35b34801561027257600080fd5b5061028d60048036038101906102889190612755565b6108cc565b60405161029a91906127c3565b60405180910390f35b6102bd60048036038101906102b8919061280a565b61094b565b005b3480156102cb57600080fd5b506102d4610a8f565b6040516102e19190612859565b60405180910390f35b61030460048036038101906102ff9190612874565b610aa6565b005b34801561031257600080fd5b5061032d60048036038101906103289190612755565b610dc8565b005b61034960048036038101906103449190612874565b610f41565b005b34801561035757600080fd5b50610372600480360381019061036d91906128c7565b610f61565b005b34801561038057600080fd5b5061039b60048036038101906103969190612755565b611007565b6040516103a891906127c3565b60405180910390f35b3480156103bd57600080fd5b506103d860048036038101906103d391906128c7565b611019565b6040516103e59190612859565b60405180910390f35b3480156103fa57600080fd5b506104036110d1565b005b34801561041157600080fd5b5061041a6110e5565b6040516104279190612859565b60405180910390f35b34801561043c57600080fd5b506104456110eb565b6040516104529190612859565b60405180910390f35b34801561046757600080fd5b50610482600480360381019061047d91906128c7565b6110f5565b005b34801561049057600080fd5b506104ab60048036038101906104a6919061280a565b611158565b005b3480156104b957600080fd5b506104c26112f0565b6040516104cf91906127c3565b60405180910390f35b3480156104e457600080fd5b506104ff60048036038101906104fa9190612959565b61131a565b005b34801561050d57600080fd5b50610516611338565b60405161052391906126fd565b60405180910390f35b34801561053857600080fd5b506105416113c6565b60405161054e91906126fd565b60405180910390f35b34801561056357600080fd5b5061057e600480360381019061057991906128c7565b611458565b60405161058b9190612652565b60405180910390f35b6105ae60048036038101906105a99190612755565b611478565b005b3480156105bc57600080fd5b506105d760048036038101906105d291906129d2565b611779565b005b3480156105e557600080fd5b5061060060048036038101906105fb9190612755565b611884565b60405161060f93929190612a12565b60405180910390f35b610632600480360381019061062d9190612b79565b6118ce565b005b34801561064057600080fd5b50610649611941565b6040516106569190612652565b60405180910390f35b34801561066b57600080fd5b5061068660048036038101906106819190612755565b611954565b60405161069391906126fd565b60405180910390f35b3480156106a857600080fd5b506106b16119d0565b6040516106be9190612859565b60405180910390f35b3480156106d357600080fd5b506106ee60048036038101906106e99190612bfc565b6119d6565b005b3480156106fc57600080fd5b5061071760048036038101906107129190612755565b611a32565b005b34801561072557600080fd5b50610740600480360381019061073b91906128c7565b611a7b565b005b34801561074e57600080fd5b5061076960048036038101906107649190612c29565b611ade565b6040516107769190612652565b60405180910390f35b34801561078b57600080fd5b506107a660048036038101906107a191906128c7565b611b72565b005b60006301ffc9a760e01b827bffffffffffffffffffffffffffffffffffffffffffffffffffffffff1916148061080357506380ac58cd60e01b827bffffffffffffffffffffffffffffffffffffffffffffffffffffffff1916145b806108335750635b5e139f60e01b827bffffffffffffffffffffffffffffffffffffffffffffffffffffffff1916145b9050919050565b60606002805461084990612c98565b80601f016020809104026020016040519081016040528092919081815260200182805461087590612c98565b80156108c25780601f10610897576101008083540402835291602001916108c2565b820191906000526020600020905b8154815290600101906020018083116108a557829003601f168201915b5050505050905090565b60006108d782611bf5565b61090d576040517fcf4700e400000000000000000000000000000000000000000000000000000000815260040160405180910390fd5b6006600083815260200190815260200160002060000160009054906101000a900473ffffffffffffffffffffffffffffffffffffffff169050919050565b600061095682611007565b90508073ffffffffffffffffffffffffffffffffffffffff16610977611c54565b73ffffffffffffffffffffffffffffffffffffffff16146109da576109a38161099e611c54565b611ade565b6109d9576040517fcfb3b94200000000000000000000000000000000000000000000000000000000815260040160405180910390fd5b5b826006600084815260200190815260200160002060000160006101000a81548173ffffffffffffffffffffffffffffffffffffffff021916908373ffffffffffffffffffffffffffffffffffffffff160217905550818373ffffffffffffffffffffffffffffffffffffffff168273ffffffffffffffffffffffffffffffffffffffff167f8c5be1e5ebec7d5bd14f71427d1e84f3dd0314c0f7b2291e5b200ac8c7c3b92560405160405180910390a4505050565b6000610a99611c5c565b6001546000540303905090565b6000610ab182611c65565b90508373ffffffffffffffffffffffffffffffffffffffff168173ffffffffffffffffffffffffffffffffffffffff1614610b18576040517fa114810000000000000000000000000000000000000000000000000000000000815260040160405180910390fd5b600080610b2484611d31565b91509150610b3a8187610b35611c54565b611d58565b610b8657610b4f86610b4a611c54565b611ade565b610b85576040517f59c896be00000000000000000000000000000000000000000000000000000000815260040160405180910390fd5b5b600073ffffffffffffffffffffffffffffffffffffffff168573ffffffffffffffffffffffffffffffffffffffff1603610bec576040517fea553b3400000000000000000000000000000000000000000000000000000000815260040160405180910390fd5b610bf98686866001611d9c565b8015610c0457600082555b600560008773ffffffffffffffffffffffffffffffffffffffff1673ffffffffffffffffffffffffffffffffffffffff168152602001908152602001600020600081546001900391905081905550600560008673ffffffffffffffffffffffffffffffffffffffff1673ffffffffffffffffffffffffffffffffffffffff1681526020019081526020016000206000815460010191905081905550610cd285610cae888887611da2565b7c020000000000000000000000000000000000000000000000000000000017611dca565b600460008681526020019081526020016000208190555060007c0200000000000000000000000000000000000000000000000000000000841603610d585760006001850190506000600460008381526020019081526020016000205403610d56576000548114610d55578360046000838152602001908152602001600020819055505b5b505b838573ffffffffffffffffffffffffffffffffffffffff168773ffffffffffffffffffffffffffffffffffffffff167fddf252ad1be2c89b69c2b068fc378daa952ba7f163c4a11628f55a4df523b3ef60405160405180910390a4610dc08686866001611df5565b505050505050565b610dd0611dfb565b600b5481610ddc610a8f565b610de69190612cf8565b1115610e27576040517f08c379a0000000000000000000000000000000000000000000000000000000008152600401610e1e90612d78565b60405180910390fd5b610e313382611e79565b80600e6000828254610e439190612cf8565b925050819055506040518060600160405280600e5481526020014281526020013373ffffffffffffffffffffffffffffffffffffffff1681525060096000600e548152602001908152602001600020600082015181600001556020820151816001015560408201518160020160006101000a81548173ffffffffffffffffffffffffffffffffffffffff021916908373ffffffffffffffffffffffffffffffffffffffff1602179055509050503373ffffffffffffffffffffffffffffffffffffffff167f3f2c9d57c068687834f0de942a9babb9e5acab57d516d3480a3c16ee165a427382604051610f369190612859565b60405180910390a250565b610f5c838383604051806020016040528060008152506118ce565b505050565b610f69611dfb565b60004790508173ffffffffffffffffffffffffffffffffffffffff166108fc829081150290604051600060405180830381858888f19350505050158015610fb4573d6000803e3d6000fd5b508173ffffffffffffffffffffffffffffffffffffffff167f7fcf532c15f0a6db0bd6d0e038bea71d30d808c7d98cb3bf7268a95bf5081b6582604051610ffb9190612859565b60405180910390a25050565b600061101282611c65565b9050919050565b60008073ffffffffffffffffffffffffffffffffffffffff168273ffffffffffffffffffffffffffffffffffffffff1603611080576040517f8f4eb60400000000000000000000000000000000000000000000000000000000815260040160405180910390fd5b67ffffffffffffffff600560008473ffffffffffffffffffffffffffffffffffffffff1673ffffffffffffffffffffffffffffffffffffffff16815260200190815260200160002054169050919050565b6110d9611dfb565b6110e36000611e97565b565b600e5481565b6000600e54905090565b6110fd611dfb565b6000601260008373ffffffffffffffffffffffffffffffffffffffff1673ffffffffffffffffffffffffffffffffffffffff16815260200190815260200160002060006101000a81548160ff02191690831515021790555050565b611160611dfb565b60148161116b610a8f565b6111759190612cf8565b11156111b6576040517f08c379a00000000000000000000000000000000000000000000000000000000081526004016111ad90612d78565b60405180910390fd5b60005b8181101561129d576111cc836001611e79565b600e60008154809291906111df90612d98565b91905055506040518060600160405280600e5481526020014281526020018473ffffffffffffffffffffffffffffffffffffffff1681525060096000600e548152602001908152602001600020600082015181600001556020820151816001015560408201518160020160006101000a81548173ffffffffffffffffffffffffffffffffffffffff021916908373ffffffffffffffffffffffffffffffffffffffff160217905550905050808061129590612d98565b9150506111b9565b508173ffffffffffffffffffffffffffffffffffffffff167f7bd6d4be1decdc27a9ed9c7ccdf5bb7cc38e31b3647b958c6b37162a2296c0fa826040516112e49190612859565b60405180910390a25050565b6000600860009054906101000a900473ffffffffffffffffffffffffffffffffffffffff16905090565b611322611dfb565b818160109182611333929190612f97565b505050565b600f805461134590612c98565b80601f016020809104026020016040519081016040528092919081815260200182805461137190612c98565b80156113be5780601f10611393576101008083540402835291602001916113be565b820191906000526020600020905b8154815290600101906020018083116113a157829003601f168201915b505050505081565b6060600380546113d590612c98565b80601f016020809104026020016040519081016040528092919081815260200182805461140190612c98565b801561144e5780601f106114235761010080835404028352916020019161144e565b820191906000526020600020905b81548152906001019060200180831161143157829003601f168201915b5050505050905090565b60126020528060005260406000206000915054906101000a900460ff1681565b601160009054906101000a900460ff166114c7576040517f08c379a00000000000000000000000000000000000000000000000000000000081526004016114be906130b3565b60405180910390fd5b601260003373ffffffffffffffffffffffffffffffffffffffff1673ffffffffffffffffffffffffffffffffffffffff16815260200190815260200160002060009054906101000a900460ff16611553576040517f08c379a000000000000000000000000000000000000000000000000000000000815260040161154a9061311f565b60405180910390fd5b600a5461155f33611f5d565b8261156a9190612cf8565b11156115ab576040517f08c379a00000000000000000000000000000000000000000000000000000000081526004016115a29061318b565b60405180910390fd5b600c54600b546115bb91906131ab565b816115c4610a8f565b6115ce9190612cf8565b111561160f576040517f08c379a000000000000000000000000000000000000000000000000000000000815260040161160690612d78565b60405180910390fd5b80600d5461161d91906131df565b34101561165f576040517f08c379a00000000000000000000000000000000000000000000000000000000081526004016116569061326d565b60405180910390fd5b6116693382611e79565b80600e600082825461167b9190612cf8565b925050819055506040518060600160405280600e5481526020014281526020013373ffffffffffffffffffffffffffffffffffffffff1681525060096000600e548152602001908152602001600020600082015181600001556020820151816001015560408201518160020160006101000a81548173ffffffffffffffffffffffffffffffffffffffff021916908373ffffffffffffffffffffffffffffffffffffffff1602179055509050503373ffffffffffffffffffffffffffffffffffffffff167f3f2c9d57c068687834f0de942a9babb9e5acab57d516d3480a3c16ee165a42738260405161176e9190612859565b60405180910390a250565b8060076000611786611c54565b73ffffffffffffffffffffffffffffffffffffffff1673ffffffffffffffffffffffffffffffffffffffff16815260200190815260200160002060008473ffffffffffffffffffffffffffffffffffffffff1673ffffffffffffffffffffffffffffffffffffffff16815260200190815260200160002060006101000a81548160ff0219169083151502179055508173ffffffffffffffffffffffffffffffffffffffff16611833611c54565b73ffffffffffffffffffffffffffffffffffffffff167f17307eab39ab6107e8899845ad3d59bd9653f200f220920489ca2b5937696c31836040516118789190612652565b60405180910390a35050565b60096020528060005260406000206000915090508060000154908060010154908060020160009054906101000a900473ffffffffffffffffffffffffffffffffffffffff16905083565b6118d9848484610aa6565b60008373ffffffffffffffffffffffffffffffffffffffff163b1461193b5761190484848484611fb4565b61193a576040517fd1a57ed600000000000000000000000000000000000000000000000000000000815260040160405180910390fd5b5b50505050565b601160009054906101000a900460ff1681565b606061195f82611bf5565b61199e576040517f08c379a0000000000000000000000000000000000000000000000000000000008152600401611995906132d9565b60405180910390fd5b60106119a983612104565b6040516020016119ba929190613404565b6040516020818303038152906040529050919050565b600d5481565b6119de611dfb565b80601160006101000a81548160ff0219169083151502179055507f696ca93f2d646dcbf31ca7a85da7f825bd3796a6d7baa7321166e324bd25f4db81604051611a279190612652565b60405180910390a150565b611a3a611dfb565b80600d819055507fe043e3e44450462f070ef41d0ee43c33ea863ea59eaee8da6f27377b8ba88c3581604051611a709190612859565b60405180910390a150565b611a83611dfb565b6001601260008373ffffffffffffffffffffffffffffffffffffffff1673ffffffffffffffffffffffffffffffffffffffff16815260200190815260200160002060006101000a81548160ff02191690831515021790555050565b6000600760008473ffffffffffffffffffffffffffffffffffffffff1673ffffffffffffffffffffffffffffffffffffffff16815260200190815260200160002060008373ffffffffffffffffffffffffffffffffffffffff1673ffffffffffffffffffffffffffffffffffffffff16815260200190815260200160002060009054906101000a900460ff16905092915050565b611b7a611dfb565b600073ffffffffffffffffffffffffffffffffffffffff168173ffffffffffffffffffffffffffffffffffffffff1603611be9576040517f08c379a0000000000000000000000000000000000000000000000000000000008152600401611be0906134a5565b60405180910390fd5b611bf281611e97565b50565b600081611c00611c5c565b11158015611c0f575060005482105b8015611c4d575060007c0100000000000000000000000000000000000000000000000000000000600460008581526020019081526020016000205416145b9050919050565b600033905090565b60006001905090565b60008082905080611c74611c5c565b11611cfa57600054811015611cf95760006004600083815260200190815260200160002054905060007c0100000000000000000000000000000000000000000000000000000000821603611cf7575b60008103611ced576004600083600190039350838152602001908152602001600020549050611cc3565b8092505050611d2c565b505b5b6040517fdf2d9b4200000000000000000000000000000000000000000000000000000000815260040160405180910390fd5b919050565b60008060006006600085815260200190815260200160002090508092508254915050915091565b600073ffffffffffffffffffffffffffffffffffffffff8316925073ffffffffffffffffffffffffffffffffffffffff821691508382148383141790509392505050565b50505050565b60008060e883901c905060e8611db98686846121d2565b62ffffff16901b9150509392505050565b600073ffffffffffffffffffffffffffffffffffffffff83169250814260a01b178317905092915050565b50505050565b611e036121db565b73ffffffffffffffffffffffffffffffffffffffff16611e216112f0565b73ffffffffffffffffffffffffffffffffffffffff1614611e77576040517f08c379a0000000000000000000000000000000000000000000000000000000008152600401611e6e90613511565b60405180910390fd5b565b611e938282604051806020016040528060008152506121e3565b5050565b6000600860009054906101000a900473ffffffffffffffffffffffffffffffffffffffff16905081600860006101000a81548173ffffffffffffffffffffffffffffffffffffffff021916908373ffffffffffffffffffffffffffffffffffffffff1602179055508173ffffffffffffffffffffffffffffffffffffffff168173ffffffffffffffffffffffffffffffffffffffff167f8be0079c531659141344cd1fd0a4f28419497f9722a3daafe3b4186f6b6457e060405160405180910390a35050565b600067ffffffffffffffff6040600560008573ffffffffffffffffffffffffffffffffffffffff1673ffffffffffffffffffffffffffffffffffffffff16815260200190815260200160002054901c169050919050565b60008373ffffffffffffffffffffffffffffffffffffffff1663150b7a02611fda611c54565b8786866040518563ffffffff1660e01b8152600401611ffc9493929190613586565b6020604051808303816000875af192505050801561203857506040513d601f19601f8201168201806040525081019061203591906135e7565b60015b6120b1573d8060008114612068576040519150601f19603f3d011682016040523d82523d6000602084013e61206d565b606091505b5060008151036120a9576040517fd1a57ed600000000000000000000000000000000000000000000000000000000815260040160405180910390fd5b805181602001fd5b63150b7a0260e01b7bffffffffffffffffffffffffffffffffffffffffffffffffffffffff1916817bffffffffffffffffffffffffffffffffffffffffffffffffffffffff191614915050949350505050565b60606000600161211384612280565b01905060008167ffffffffffffffff81111561213257612131612a4e565b5b6040519080825280601f01601f1916602001820160405280156121645781602001600182028036833780820191505090505b509050600082602001820190505b6001156121c7578080600190039150507f3031323334353637383961626364656600000000000000000000000000000000600a86061a8153600a85816121bb576121ba613614565b5b04945060008503612172575b819350505050919050565b60009392505050565b600033905090565b6121ed83836123d3565b60008373ffffffffffffffffffffffffffffffffffffffff163b1461227b57600080549050600083820390505b61222d6000868380600101945086611fb4565b612263576040517fd1a57ed600000000000000000000000000000000000000000000000000000000815260040160405180910390fd5b81811061221a57816000541461227857600080fd5b50505b505050565b600080600090507a184f03e93ff9f4daa797ed6e38ed64bf6a1f01000000000000000083106122de577a184f03e93ff9f4daa797ed6e38ed64bf6a1f01000000000000000083816122d4576122d3613614565b5b0492506040810190505b6d04ee2d6d415b85acef8100000000831061231b576d04ee2d6d415b85acef8100000000838161231157612310613614565b5b0492506020810190505b662386f26fc10000831061234a57662386f26fc1000083816123405761233f613614565b5b0492506010810190505b6305f5e1008310612373576305f5e100838161236957612368613614565b5b0492506008810190505b612710831061239857612710838161238e5761238d613614565b5b0492506004810190505b606483106123bb57606483816123b1576123b0613614565b5b0492506002810190505b600a83106123ca576001810190505b80915050919050565b60008054905060008203612413576040517fb562e8dd00000000000000000000000000000000000000000000000000000000815260040160405180910390fd5b6124206000848385611d9c565b600160406001901b178202600560008573ffffffffffffffffffffffffffffffffffffffff1673ffffffffffffffffffffffffffffffffffffffff16815260200190815260200160002060008282540192505081905550612497836124886000866000611da2565b6124918561258e565b17611dca565b6004600083815260200190815260200160002081905550600080838301905073ffffffffffffffffffffffffffffffffffffffff85169150828260007fddf252ad1be2c89b69c2b068fc378daa952ba7f163c4a11628f55a4df523b3ef600080a4600183015b81811461253857808360007fddf252ad1be2c89b69c2b068fc378daa952ba7f163c4a11628f55a4df523b3ef600080a46001810190506124fd565b5060008203612573576040517f2e07630000000000000000000000000000000000000000000000000000000000815260040160405180910390fd5b8060008190555050506125896000848385611df5565b505050565b60006001821460e11b9050919050565b6000604051905090565b600080fd5b600080fd5b60007fffffffff0000000000000000000000000000000000000000000000000000000082169050919050565b6125e7816125b2565b81146125f257600080fd5b50565b600081359050612604816125de565b92915050565b6000602082840312156126205761261f6125a8565b5b600061262e848285016125f5565b91505092915050565b60008115159050919050565b61264c81612637565b82525050565b60006020820190506126676000830184612643565b92915050565b600081519050919050565b600082825260208201905092915050565b60005b838110156126a757808201518184015260208101905061268c565b60008484015250505050565b6000601f19601f8301169050919050565b60006126cf8261266d565b6126d98185612678565b93506126e9818560208601612689565b6126f2816126b3565b840191505092915050565b6000602082019050818103600083015261271781846126c4565b905092915050565b6000819050919050565b6127328161271f565b811461273d57600080fd5b50565b60008135905061274f81612729565b92915050565b60006020828403121561276b5761276a6125a8565b5b600061277984828501612740565b91505092915050565b600073ffffffffffffffffffffffffffffffffffffffff82169050919050565b60006127ad82612782565b9050919050565b6127bd816127a2565b82525050565b60006020820190506127d860008301846127b4565b92915050565b6127e7816127a2565b81146127f257600080fd5b50565b600081359050612804816127de565b92915050565b60008060408385031215612821576128206125a8565b5b600061282f858286016127f5565b925050602061284085828601612740565b9150509250929050565b6128538161271f565b82525050565b600060208201905061286e600083018461284a565b92915050565b60008060006060848603121561288d5761288c6125a8565b5b600061289b868287016127f5565b93505060206128ac868287016127f5565b92505060406128bd86828701612740565b9150509250925092565b6000602082840312156128dd576128dc6125a8565b5b60006128eb848285016127f5565b91505092915050565b600080fd5b600080fd5b600080fd5b60008083601f840112612919576129186128f4565b5b8235905067ffffffffffffffff811115612936576129356128f9565b5b602083019150836001820283011115612952576129516128fe565b5b9250929050565b600080602083850312156129705761296f6125a8565b5b600083013567ffffffffffffffff81111561298e5761298d6125ad565b5b61299a85828601612903565b92509250509250929050565b6129af81612637565b81146129ba57600080fd5b50565b6000813590506129cc816129a6565b92915050565b600080604083850312156129e9576129e86125a8565b5b60006129f7858286016127f5565b9250506020612a08858286016129bd565b9150509250929050565b6000606082019050612a27600083018661284a565b612a34602083018561284a565b612a4160408301846127b4565b949350505050565b600080fd5b7f4e487b7100000000000000000000000000000000000000000000000000000000600052604160045260246000fd5b612a86826126b3565b810181811067ffffffffffffffff82111715612aa557612aa4612a4e565b5b80604052505050565b6000612ab861259e565b9050612ac48282612a7d565b919050565b600067ffffffffffffffff821115612ae457612ae3612a4e565b5b612aed826126b3565b9050602081019050919050565b82818337600083830152505050565b6000612b1c612b1784612ac9565b612aae565b905082815260208101848484011115612b3857612b37612a49565b5b612b43848285612afa565b509392505050565b600082601f830112612b6057612b5f6128f4565b5b8135612b70848260208601612b09565b91505092915050565b60008060008060808587031215612b9357612b926125a8565b5b6000612ba1878288016127f5565b9450506020612bb2878288016127f5565b9350506040612bc387828801612740565b925050606085013567ffffffffffffffff811115612be457612be36125ad565b5b612bf087828801612b4b565b91505092959194509250565b600060208284031215612c1257612c116125a8565b5b6000612c20848285016129bd565b91505092915050565b60008060408385031215612c4057612c3f6125a8565b5b6000612c4e858286016127f5565b9250506020612c5f858286016127f5565b9150509250929050565b7f4e487b7100000000000000000000000000000000000000000000000000000000600052602260045260246000fd5b60006002820490506001821680612cb057607f821691505b602082108103612cc357612cc2612c69565b5b50919050565b7f4e487b7100000000000000000000000000000000000000000000000000000000600052601160045260246000fd5b6000612d038261271f565b9150612d0e8361271f565b9250828201905080821115612d2657612d25612cc9565b5b92915050565b7f534f4c44204f5554210000000000000000000000000000000000000000000000600082015250565b6000612d62600983612678565b9150612d6d82612d2c565b602082019050919050565b60006020820190508181036000830152612d9181612d55565b9050919050565b6000612da38261271f565b91507fffffffffffffffffffffffffffffffffffffffffffffffffffffffffffffffff8203612dd557612dd4612cc9565b5b600182019050919050565b600082905092915050565b60008190508160005260206000209050919050565b60006020601f8301049050919050565b600082821b905092915050565b600060088302612e4d7fffffffffffffffffffffffffffffffffffffffffffffffffffffffffffffffff82612e10565b612e578683612e10565b95508019841693508086168417925050509392505050565b6000819050919050565b6000612e94612e8f612e8a8461271f565b612e6f565b61271f565b9050919050565b6000819050919050565b612eae83612e79565b612ec2612eba82612e9b565b848454612e1d565b825550505050565b600090565b612ed7612eca565b612ee2818484612ea5565b505050565b5b81811015612f0657612efb600082612ecf565b600181019050612ee8565b5050565b601f821115612f4b57612f1c81612deb565b612f2584612e00565b81016020851015612f34578190505b612f48612f4085612e00565b830182612ee7565b50505b505050565b600082821c905092915050565b6000612f6e60001984600802612f50565b1980831691505092915050565b6000612f878383612f5d565b9150826002028217905092915050565b612fa18383612de0565b67ffffffffffffffff811115612fba57612fb9612a4e565b5b612fc48254612c98565b612fcf828285612f0a565b6000601f831160018114612ffe5760008415612fec578287013590505b612ff68582612f7b565b86555061305e565b601f19841661300c86612deb565b60005b828110156130345784890135825560018201915060208501945060208101905061300f565b86831015613051578489013561304d601f891682612f5d565b8355505b6001600288020188555050505b50505050505050565b7f5075626c6963204d696e7420436c6f7365640000000000000000000000000000600082015250565b600061309d601283612678565b91506130a882613067565b602082019050919050565b600060208201905081810360008301526130cc81613090565b9050919050565b7f4e6f742077686974656c69737465640000000000000000000000000000000000600082015250565b6000613109600f83612678565b9150613114826130d3565b602082019050919050565b60006020820190508181036000830152613138816130fc565b9050919050565b7f496e76616c6964207175616e7469747900000000000000000000000000000000600082015250565b6000613175601083612678565b91506131808261313f565b602082019050919050565b600060208201905081810360008301526131a481613168565b9050919050565b60006131b68261271f565b91506131c18361271f565b92508282039050818111156131d9576131d8612cc9565b5b92915050565b60006131ea8261271f565b91506131f58361271f565b92508282026132038161271f565b9150828204841483151761321a57613219612cc9565b5b5092915050565b7f6e6f7420656e6f75676820657468657200000000000000000000000000000000600082015250565b6000613257601083612678565b915061326282613221565b602082019050919050565b600060208201905081810360008301526132868161324a565b9050919050565b7f546f6b656e20646f6573206e6f74206578697374000000000000000000000000600082015250565b60006132c3601483612678565b91506132ce8261328d565b602082019050919050565b600060208201905081810360008301526132f2816132b6565b9050919050565b600081905092915050565b6000815461331181612c98565b61331b81866132f9565b94506001821660008114613336576001811461334b5761337e565b60ff198316865281151582028601935061337e565b61335485612deb565b60005b8381101561337657815481890152600182019150602081019050613357565b838801955050505b50505092915050565b60006133928261266d565b61339c81856132f9565b93506133ac818560208601612689565b80840191505092915050565b7f2e6a736f6e000000000000000000000000000000000000000000000000000000600082015250565b60006133ee6005836132f9565b91506133f9826133b8565b600582019050919050565b60006134108285613304565b915061341c8284613387565b9150613427826133e1565b91508190509392505050565b7f4f776e61626c653a206e6577206f776e657220697320746865207a65726f206160008201527f6464726573730000000000000000000000000000000000000000000000000000602082015250565b600061348f602683612678565b915061349a82613433565b604082019050919050565b600060208201905081810360008301526134be81613482565b9050919050565b7f4f776e61626c653a2063616c6c6572206973206e6f7420746865206f776e6572600082015250565b60006134fb602083612678565b9150613506826134c5565b602082019050919050565b6000602082019050818103600083015261352a816134ee565b9050919050565b600081519050919050565b600082825260208201905092915050565b600061355882613531565b613562818561353c565b9350613572818560208601612689565b61357b816126b3565b840191505092915050565b600060808201905061359b60008301876127b4565b6135a860208301866127b4565b6135b5604083018561284a565b81810360608301526135c7818461354d565b905095945050505050565b6000815190506135e1816125de565b92915050565b6000602082840312156135fd576135fc6125a8565b5b600061360b848285016135d2565b91505092915050565b7f4e487b7100000000000000000000000000000000000000000000000000000000600052601260045260246000fdfea2646970667358221220dfc416db07e16b308bd56f0f087be59bf84fda14c26aeca36c96911aaf64c81164736f6c63430008110033",
  "linkReferences": {},
  "deployedLinkReferences": {}
}